{
  "contractName": "counseling",
  "abi": [
    {
      "inputs": [
        {
          "internalType": "string",
          "name": "",
          "type": "string"
        }
      ],
      "name": "student",
      "outputs": [
        {
          "internalType": "string",
          "name": "",
          "type": "string"
        }
      ],
      "stateMutability": "view",
      "type": "function",
      "constant": true
    },
    {
      "inputs": [
        {
          "internalType": "string",
          "name": "address_student",
          "type": "string"
        },
        {
          "internalType": "string",
          "name": "md",
          "type": "string"
        }
      ],
      "name": "addStudent",
      "outputs": [],
      "stateMutability": "nonpayable",
      "type": "function"
    }
  ],
  "bytecode": "0x608060405234801561001057600080fd5b506105c6806100206000396000f3fe608060405234801561001057600080fd5b50600436106100365760003560e01c80636c1f3ef61461003b578063e27bb1f71461006b575b600080fd5b61005560048036038101906100509190610371565b610087565b6040516100629190610442565b60405180910390f35b61008560048036038101906100809190610464565b61013d565b005b60008180516020810182018051848252602083016020850120818352809550505050505060009150905080546100bc9061050b565b80601f01602080910402602001604051908101604052809291908181526020018280546100e89061050b565b80156101355780601f1061010a57610100808354040283529160200191610135565b820191906000526020600020905b81548152906001019060200180831161011857829003601f168201915b505050505081565b8060008360405161014e9190610579565b9081526020016040518091039020908051906020019061016f929190610174565b505050565b8280546101809061050b565b90600052602060002090601f0160209004810192826101a257600085556101e9565b82601f106101bb57805160ff19168380011785556101e9565b828001600101855582156101e9579182015b828111156101e85782518255916020019190600101906101cd565b5b5090506101f691906101fa565b5090565b5b808211156102135760008160009055506001016101fb565b5090565b6000604051905090565b600080fd5b600080fd5b600080fd5b600080fd5b6000601f19601f8301169050919050565b7f4e487b7100000000000000000000000000000000000000000000000000000000600052604160045260246000fd5b61027e82610235565b810181811067ffffffffffffffff8211171561029d5761029c610246565b5b80604052505050565b60006102b0610217565b90506102bc8282610275565b919050565b600067ffffffffffffffff8211156102dc576102db610246565b5b6102e582610235565b9050602081019050919050565b82818337600083830152505050565b600061031461030f846102c1565b6102a6565b9050828152602081018484840111156103305761032f610230565b5b61033b8482856102f2565b509392505050565b600082601f8301126103585761035761022b565b5b8135610368848260208601610301565b91505092915050565b60006020828403121561038757610386610221565b5b600082013567ffffffffffffffff8111156103a5576103a4610226565b5b6103b184828501610343565b91505092915050565b600081519050919050565b600082825260208201905092915050565b60005b838110156103f45780820151818401526020810190506103d9565b83811115610403576000848401525b50505050565b6000610414826103ba565b61041e81856103c5565b935061042e8185602086016103d6565b61043781610235565b840191505092915050565b6000602082019050818103600083015261045c8184610409565b905092915050565b6000806040838503121561047b5761047a610221565b5b600083013567ffffffffffffffff81111561049957610498610226565b5b6104a585828601610343565b925050602083013567ffffffffffffffff8111156104c6576104c5610226565b5b6104d285828601610343565b9150509250929050565b7f4e487b7100000000000000000000000000000000000000000000000000000000600052602260045260246000fd5b6000600282049050600182168061052357607f821691505b60208210811415610537576105366104dc565b5b50919050565b600081905092915050565b6000610553826103ba565b61055d818561053d565b935061056d8185602086016103d6565b80840191505092915050565b60006105858284610548565b91508190509291505056fea2646970667358221220a480b4a808e2e1fa4a8d36f0a51b8bd0f213f7102012f6afae8632cd5704e5d564736f6c634300080a0033",
  "immutableReferences": {},
  "source": "// SPDX-License-Identifier: GPL-3.0\r\n\r\npragma solidity >=0.7.0 <0.9.0;\r\ncontract counseling{\r\nmapping(string=>string) public student;\r\nfunction addStudent(string memory address_student, string memory md) public {\r\n    student[address_student] = md;\r\n}\r\n}",
  "sourcePath": "C:\\Users\\shrey\\NODEJS PROJECT\\Blockchain-Projects\\counseling\\contracts\\counseling.sol",
  "compiler": {
    "name": "solc",
    "version": "0.8.10+commit.fc410830.Emscripten.clang"
  },
  "schemaVersion": "3.4.3",
  "updatedAt": "2022-01-07T13:33:25.457Z",
  "networkType": "ethereum",
  "devdoc": {
    "kind": "dev",
    "methods": {},
    "version": 1
  },
  "userdoc": {
    "kind": "user",
    "methods": {},
    "version": 1
  }
}